:020000020000FC
:040000000C94340028
:040034000C946E00BA
:100068000FEF0DBF08E00EBF01E004B9002705B986
:100078000AB900E00093800000E00093810001E0ED
:1000880000936F00789409B10370003039F00130A3
:1000980061F0023089F00330B1F0F5CF00918100B2
:1000A800087F00938100289AEECF00918100087F95
:1000B800036000938100E7CF00918100087F04600E
:1000C80000938100E0CF00918100087F05600093D4
:1000D8008100D9CF289902C0289A18952898FDCF71
:00000001FF
