:020000020000FC
:040000000C94340028
:100068000FEF0DBF08E00EBF0EE30AB900E00093E2
:10007800C50007E60093C40006E00093C20008E14B
:100088000093C100E0E0FAE00E9453000091C00034
:1000980007FFFCCF1091C6000E946000F7CF0091C7
:1000A800C00005FFFCCF0591003019F00093C60091
:1000B800F6CF0093C60008952BB1113359F01233CF
:1000C80061F0133369F0143371F00C946D0020273C
:1000D8002BB9089504E00C946B0008E00C946B00B5
:0C00E80000E10C946B0000E20C946B0033
:100A0000202A2A2A486F6C61204C61626F2064653D
:100A1000204D6963726F2A2A2A3A457363726962AC
:100A20006120312C20322C2033206F203420706143
:100A3000726120636F6E74726F6C6172206C6F7381
:080A4000204C4544730D0A002F
:00000001FF
