:020000020000FC
:040000000C94340028
:100068000FEF0DBF08E00EBF0EE30AB900E00093E2
:10007800C50007E60093C40006E00093C20008E14B
:100088000093C100E0E0FAE00E9453000091C00034
:1000980007FFFCCF1091C6000E946000F7CF0091C7
:1000A800C00005FFFCCF0591003019F00093C60091
:1000B800F6CF0093C60008952BB1113359F01233CF
:1000C80061F0133369F0143371F00C946D0020273C
:1000D8002BB9089504E00C946B0008E00C946B00B5
:0C00E80000E10C946B0000E20C946B0033
:100A00002A2A2A486F6C61204C61626F206465203D
:100A10004D6963726F2A2A2A0A457363726962619B
:100A200020312C20322C2033206F20342070617232
:100A30006120636F6E74726F6C6172206C6F7320D3
:080A40004C4544730D0A00004F
:00000001FF
