:020000020000FC
:040000000C94340028
:100068004CEF4AB95A9A65E188277FEC7A95F1F7FF
:100078008A95D9F76A95C1F75A985B9A65E18827F6
:100088007FEC7A95F1F78A95D9F76A95C1F75B986D
:100098005C9A65E188277FEC7A95F1F78A95D9F71C
:1000A8006A95C1F75C985D9A65E188277FEC7A9537
:1000B800F1F78A95D9F76A95C1F75D985E9A65E177
:1000C80088277FEC7A95F1F78A95D9F76A95C1F771
:1000D8005E985F9A65E188277FEC7A95F1F78A95B3
:1000E800D9F76A95C1F75F985E9A65E188277FEC32
:1000F8007A95F1F78A95D9F76A95C1F75E985D9A6E
:1001080065E188277FEC7A95F1F78A95D9F76A95A2
:10011800C1F75D985C9A65E188277FEC7A95F1F7DD
:100128008A95D9F76A95C1F75C985B9A65E1882743
:100138007FEC7A95F1F78A95D9F76A95C1F75B98BC
:040148000C943600DD
:00000001FF
